{
  "contractName": "DonationContract",
  "abi": [
    {
      "inputs": [],
      "stateMutability": "nonpayable",
      "type": "constructor"
    },
    {
      "inputs": [
        {
          "internalType": "address",
          "name": "owner",
          "type": "address"
        }
      ],
      "name": "OwnableInvalidOwner",
      "type": "error"
    },
    {
      "inputs": [
        {
          "internalType": "address",
          "name": "account",
          "type": "address"
        }
      ],
      "name": "OwnableUnauthorizedAccount",
      "type": "error"
    },
    {
      "anonymous": false,
      "inputs": [
        {
          "indexed": true,
          "internalType": "address",
          "name": "donor",
          "type": "address"
        },
        {
          "indexed": false,
          "internalType": "uint256",
          "name": "amount",
          "type": "uint256"
        }
      ],
      "name": "DonationReceived",
      "type": "event"
    },
    {
      "anonymous": false,
      "inputs": [
        {
          "indexed": true,
          "internalType": "address",
          "name": "charity",
          "type": "address"
        },
        {
          "indexed": false,
          "internalType": "uint256",
          "name": "amount",
          "type": "uint256"
        }
      ],
      "name": "FundsWithdrawn",
      "type": "event"
    },
    {
      "anonymous": false,
      "inputs": [
        {
          "indexed": true,
          "internalType": "address",
          "name": "previousOwner",
          "type": "address"
        },
        {
          "indexed": true,
          "internalType": "address",
          "name": "newOwner",
          "type": "address"
        }
      ],
      "name": "OwnershipTransferred",
      "type": "event"
    },
    {
      "inputs": [
        {
          "internalType": "address",
          "name": "",
          "type": "address"
        }
      ],
      "name": "balances",
      "outputs": [
        {
          "internalType": "uint256",
          "name": "",
          "type": "uint256"
        }
      ],
      "stateMutability": "view",
      "type": "function"
    },
    {
      "inputs": [
        {
          "internalType": "uint256",
          "name": "",
          "type": "uint256"
        }
      ],
      "name": "donations",
      "outputs": [
        {
          "internalType": "address",
          "name": "donor",
          "type": "address"
        },
        {
          "internalType": "uint256",
          "name": "amount",
          "type": "uint256"
        },
        {
          "internalType": "uint256",
          "name": "timestamp",
          "type": "uint256"
        }
      ],
      "stateMutability": "view",
      "type": "function"
    },
    {
      "inputs": [],
      "name": "owner",
      "outputs": [
        {
          "internalType": "address",
          "name": "",
          "type": "address"
        }
      ],
      "stateMutability": "view",
      "type": "function"
    },
    {
      "inputs": [],
      "name": "renounceOwnership",
      "outputs": [],
      "stateMutability": "nonpayable",
      "type": "function"
    },
    {
      "inputs": [],
      "name": "totalDonations",
      "outputs": [
        {
          "internalType": "uint256",
          "name": "",
          "type": "uint256"
        }
      ],
      "stateMutability": "view",
      "type": "function"
    },
    {
      "inputs": [
        {
          "internalType": "address",
          "name": "newOwner",
          "type": "address"
        }
      ],
      "name": "transferOwnership",
      "outputs": [],
      "stateMutability": "nonpayable",
      "type": "function"
    },
    {
      "inputs": [],
      "name": "donate",
      "outputs": [],
      "stateMutability": "payable",
      "type": "function"
    },
    {
      "inputs": [],
      "name": "withdraw",
      "outputs": [],
      "stateMutability": "nonpayable",
      "type": "function"
    },
    {
      "inputs": [],
      "name": "getDonations",
      "outputs": [
        {
          "components": [
            {
              "internalType": "address",
              "name": "donor",
              "type": "address"
            },
            {
              "internalType": "uint256",
              "name": "amount",
              "type": "uint256"
            },
            {
              "internalType": "uint256",
              "name": "timestamp",
              "type": "uint256"
            }
          ],
          "internalType": "struct DonationContract.Donation[]",
          "name": "",
          "type": "tuple[]"
        }
      ],
      "stateMutability": "view",
      "type": "function"
    },
    {
      "inputs": [
        {
          "internalType": "address",
          "name": "donor",
          "type": "address"
        }
      ],
      "name": "getDonorBalance",
      "outputs": [
        {
          "internalType": "uint256",
          "name": "",
          "type": "uint256"
        }
      ],
      "stateMutability": "view",
      "type": "function"
    },
    {
      "inputs": [],
      "name": "getTotalDonations",
      "outputs": [
        {
          "internalType": "uint256",
          "name": "",
          "type": "uint256"
        }
      ],
      "stateMutability": "view",
      "type": "function"
    }
  ],
  "bytecode": "0x608060405234801561000f575f80fd5b50335f73ffffffffffffffffffffffffffffffffffffffff168173ffffffffffffffffffffffffffffffffffffffff1603610081575f6040517f1e4fbdf7000000000000000000000000000000000000000000000000000000008152600401610078919061019d565b60405180910390fd5b6100908161009d60201b60201c565b505f6003819055506101b6565b5f805f9054906101000a900473ffffffffffffffffffffffffffffffffffffffff169050815f806101000a81548173ffffffffffffffffffffffffffffffffffffffff021916908373ffffffffffffffffffffffffffffffffffffffff1602179055508173ffffffffffffffffffffffffffffffffffffffff168173ffffffffffffffffffffffffffffffffffffffff167f8be0079c531659141344cd1fd0a4f28419497f9722a3daafe3b4186f6b6457e060405160405180910390a35050565b5f73ffffffffffffffffffffffffffffffffffffffff82169050919050565b5f6101878261015e565b9050919050565b6101978161017d565b82525050565b5f6020820190506101b05f83018461018e565b92915050565b610c93806101c35f395ff3fe60806040526004361061009b575f3560e01c80638da5cb5b116100635780638da5cb5b1461016d578063de2ed89314610197578063e25f8416146101c1578063ed88c68e146101eb578063f2fde38b146101f5578063f8626af81461021d5761009b565b806327e235e31461009f5780633ccfd60b146100db5780634ffa7d50146100f1578063715018a61461012d578063777c658f14610143575b5f80fd5b3480156100aa575f80fd5b506100c560048036038101906100c091906108e9565b61025b565b6040516100d2919061092c565b60405180910390f35b3480156100e6575f80fd5b506100ef610270565b005b3480156100fc575f80fd5b50610117600480360381019061011291906108e9565b610361565b604051610124919061092c565b60405180910390f35b348015610138575f80fd5b506101416103a7565b005b34801561014e575f80fd5b506101576103ba565b604051610164919061092c565b60405180910390f35b348015610178575f80fd5b506101816103c3565b60405161018e9190610954565b60405180910390f35b3480156101a2575f80fd5b506101ab6103ea565b6040516101b8919061092c565b60405180910390f35b3480156101cc575f80fd5b506101d56103f0565b6040516101e29190610a73565b60405180910390f35b6101f36104b4565b005b348015610200575f80fd5b5061021b600480360381019061021691906108e9565b610664565b005b348015610228575f80fd5b50610243600480360381019061023e9190610abd565b6106e8565b60405161025293929190610ae8565b60405180910390f35b6002602052805f5260405f205f915090505481565b61027861073c565b5f4790505f81116102be576040517f08c379a00000000000000000000000000000000000000000000000000000000081526004016102b590610b77565b60405180910390fd5b6102c66103c3565b73ffffffffffffffffffffffffffffffffffffffff166108fc8290811502906040515f60405180830381858888f19350505050158015610308573d5f803e3d5ffd5b506103116103c3565b73ffffffffffffffffffffffffffffffffffffffff167feaff4b37086828766ad3268786972c0cd24259d4c87a80f9d3963a3c3d999b0d82604051610356919061092c565b60405180910390a250565b5f60025f8373ffffffffffffffffffffffffffffffffffffffff1673ffffffffffffffffffffffffffffffffffffffff1681526020019081526020015f20549050919050565b6103af61073c565b6103b85f6107c3565b565b5f600354905090565b5f805f9054906101000a900473ffffffffffffffffffffffffffffffffffffffff16905090565b60035481565b60606001805480602002602001604051908101604052809291908181526020015f905b828210156104ab578382905f5260205f2090600302016040518060600160405290815f82015f9054906101000a900473ffffffffffffffffffffffffffffffffffffffff1673ffffffffffffffffffffffffffffffffffffffff1673ffffffffffffffffffffffffffffffffffffffff1681526020016001820154815260200160028201548152505081526020019060010190610413565b50505050905090565b5f34116104f6576040517f08c379a00000000000000000000000000000000000000000000000000000000081526004016104ed90610bdf565b60405180910390fd5b600160405180606001604052803373ffffffffffffffffffffffffffffffffffffffff16815260200134815260200142815250908060018154018082558091505060019003905f5260205f2090600302015f909190919091505f820151815f015f6101000a81548173ffffffffffffffffffffffffffffffffffffffff021916908373ffffffffffffffffffffffffffffffffffffffff160217905550602082015181600101556040820151816002015550503460025f3373ffffffffffffffffffffffffffffffffffffffff1673ffffffffffffffffffffffffffffffffffffffff1681526020019081526020015f205f8282546105f59190610c2a565b925050819055503460035f82825461060d9190610c2a565b925050819055503373ffffffffffffffffffffffffffffffffffffffff167f264f630d9efa0d07053a31163641d9fcc0adafc9d9e76f1c37c2ce3a558d2c523460405161065a919061092c565b60405180910390a2565b61066c61073c565b5f73ffffffffffffffffffffffffffffffffffffffff168173ffffffffffffffffffffffffffffffffffffffff16036106dc575f6040517f1e4fbdf70000000000000000000000000000000000000000000000000000000081526004016106d39190610954565b60405180910390fd5b6106e5816107c3565b50565b600181815481106106f7575f80fd5b905f5260205f2090600302015f91509050805f015f9054906101000a900473ffffffffffffffffffffffffffffffffffffffff16908060010154908060020154905083565b610744610884565b73ffffffffffffffffffffffffffffffffffffffff166107626103c3565b73ffffffffffffffffffffffffffffffffffffffff16146107c157610785610884565b6040517f118cdaa70000000000000000000000000000000000000000000000000000000081526004016107b89190610954565b60405180910390fd5b565b5f805f9054906101000a900473ffffffffffffffffffffffffffffffffffffffff169050815f806101000a81548173ffffffffffffffffffffffffffffffffffffffff021916908373ffffffffffffffffffffffffffffffffffffffff1602179055508173ffffffffffffffffffffffffffffffffffffffff168173ffffffffffffffffffffffffffffffffffffffff167f8be0079c531659141344cd1fd0a4f28419497f9722a3daafe3b4186f6b6457e060405160405180910390a35050565b5f33905090565b5f80fd5b5f73ffffffffffffffffffffffffffffffffffffffff82169050919050565b5f6108b88261088f565b9050919050565b6108c8816108ae565b81146108d2575f80fd5b50565b5f813590506108e3816108bf565b92915050565b5f602082840312156108fe576108fd61088b565b5b5f61090b848285016108d5565b91505092915050565b5f819050919050565b61092681610914565b82525050565b5f60208201905061093f5f83018461091d565b92915050565b61094e816108ae565b82525050565b5f6020820190506109675f830184610945565b92915050565b5f81519050919050565b5f82825260208201905092915050565b5f819050602082019050919050565b61099f816108ae565b82525050565b6109ae81610914565b82525050565b606082015f8201516109c85f850182610996565b5060208201516109db60208501826109a5565b5060408201516109ee60408501826109a5565b50505050565b5f6109ff83836109b4565b60608301905092915050565b5f602082019050919050565b5f610a218261096d565b610a2b8185610977565b9350610a3683610987565b805f5b83811015610a66578151610a4d88826109f4565b9750610a5883610a0b565b925050600181019050610a39565b5085935050505092915050565b5f6020820190508181035f830152610a8b8184610a17565b905092915050565b610a9c81610914565b8114610aa6575f80fd5b50565b5f81359050610ab781610a93565b92915050565b5f60208284031215610ad257610ad161088b565b5b5f610adf84828501610aa9565b91505092915050565b5f606082019050610afb5f830186610945565b610b08602083018561091d565b610b15604083018461091d565b949350505050565b5f82825260208201905092915050565b7f4e6f2066756e647320617661696c61626c6500000000000000000000000000005f82015250565b5f610b61601283610b1d565b9150610b6c82610b2d565b602082019050919050565b5f6020820190508181035f830152610b8e81610b55565b9050919050565b7f446f6e6174696f6e206d7573742062652067726561746572207468616e2030005f82015250565b5f610bc9601f83610b1d565b9150610bd482610b95565b602082019050919050565b5f6020820190508181035f830152610bf681610bbd565b9050919050565b7f4e487b71000000000000000000000000000000000000000000000000000000005f52601160045260245ffd5b5f610c3482610914565b9150610c3f83610914565b9250828201905080821115610c5757610c56610bfd565b5b9291505056fea2646970667358221220c9d52692a826eee679769fde193dfa2d31386125e096eb474f1cd825aa3429ec64736f6c63430008140033",
  "immutableReferences": {},
  "source": "// SPDX-License-Identifier: MIT\r\npragma solidity ^0.8.20;\r\n\r\nimport \"@openzeppelin/contracts/access/Ownable.sol\";\r\n\r\ncontract DonationContract is Ownable {\r\n    struct Donation {\r\n        address donor; // Address of the donor\r\n        uint256 amount; // Amount donated\r\n        uint256 timestamp; // Timestamp of the donation\r\n    }\r\n\r\n    Donation[] public donations; // Array to store all donations\r\n    mapping(address => uint256) public balances; // Mapping to track individual donor balances\r\n    uint256 public totalDonations; // Variable to keep track of total donations\r\n\r\n    event DonationReceived(address indexed donor, uint256 amount); // Event for tracking donations\r\n    event FundsWithdrawn(address indexed charity, uint256 amount); // Event for tracking withdrawals\r\n\r\n    // Constructor that initializes the Ownable contract\r\n    constructor() Ownable(msg.sender) {\r\n        totalDonations = 0; // Initialize total donations\r\n    }\r\n\r\n    // Function to donate funds to the contract\r\n    function donate() external payable {\r\n        require(msg.value > 0, \"Donation must be greater than 0\");\r\n\r\n        donations.push(\r\n            Donation({\r\n                donor: msg.sender,\r\n                amount: msg.value,\r\n                timestamp: block.timestamp\r\n            })\r\n        );\r\n\r\n        balances[msg.sender] += msg.value; // Update the donor's balance\r\n        totalDonations += msg.value; // Update the total donations\r\n\r\n        emit DonationReceived(msg.sender, msg.value); // Emit the donation event\r\n    }\r\n\r\n    // Function for the owner to withdraw all funds from the contract\r\n    function withdraw() external onlyOwner {\r\n        uint256 amount = address(this).balance; // Get the contract's balance\r\n        require(amount > 0, \"No funds available\"); // Ensure there are funds to withdraw\r\n\r\n        payable(owner()).transfer(amount); // Transfer the balance to the owner\r\n        emit FundsWithdrawn(owner(), amount); // Emit the withdrawal event\r\n    }\r\n\r\n    // Function to get all donations\r\n    function getDonations() external view returns (Donation[] memory) {\r\n        return donations; // Return the array of donations\r\n    }\r\n\r\n    // Function to check the balance of a specific donor\r\n    function getDonorBalance(address donor) external view returns (uint256) {\r\n        return balances[donor]; // Return the balance of the specified donor\r\n    }\r\n\r\n    // Function to get the total donations\r\n    function getTotalDonations() external view returns (uint256) {\r\n        return totalDonations; // Return the total donations\r\n    }\r\n}\r\n",
  "sourcePath": "C:\\Users\\USER\\CharityDonation\\contracts\\DonationContract.sol",
  "compiler": {
    "name": "solc",
    "version": "0.8.20+commit.a1b79de6.Emscripten.clang"
  },
  "schemaVersion": "3.4.16",
  "updatedAt": "2024-11-01T20:42:43.867Z",
  "devdoc": {
    "errors": {
      "OwnableInvalidOwner(address)": [
        {
          "details": "The owner is not a valid owner account. (eg. `address(0)`)"
        }
      ],
      "OwnableUnauthorizedAccount(address)": [
        {
          "details": "The caller account is not authorized to perform an operation."
        }
      ]
    },
    "kind": "dev",
    "methods": {
      "owner()": {
        "details": "Returns the address of the current owner."
      },
      "renounceOwnership()": {
        "details": "Leaves the contract without owner. It will not be possible to call `onlyOwner` functions. Can only be called by the current owner. NOTE: Renouncing ownership will leave the contract without an owner, thereby disabling any functionality that is only available to the owner."
      },
      "transferOwnership(address)": {
        "details": "Transfers ownership of the contract to a new account (`newOwner`). Can only be called by the current owner."
      }
    },
    "version": 1
  },
  "userdoc": {
    "kind": "user",
    "methods": {},
    "version": 1
  }
}